:020000040000FA
:100000000A128A11F62F00308A000408840A820737
:100010000034013400340A34003464340034E834E9
:1000200003341034273425343034333475340034F9
:1001BE00831203138E018F019010101290160800F7
:1001CE0083160313071283120313071283160313E6
:1001DE0087160800F40083120313081474080A1219
:1001EE008A1111210A128A118312031308100800B2
:1001FE00F100F0013A3071020318062907290F2980
:10020E0030307102031C0C290D290F29F001F00A60
:10021E00700C0800F3007308F20004300310F20CA7
:10022E00FF3E031D152972080A128A114B220A126B
:10023E008A1173080A128A114B220A128A110800B7
:10024E00F60035297608840000080A128A11F1207A
:10025E000A128A110130F5007508F6077608840037
:10026E0083130008031D3C293D2929290800F401A8
:10027E00F501701C432944294A297208F407031812
:10028E00F50A7308F50701300310F20DF30DFF3E6A
:10029E00031D4B2901300310F10CF00CFF3E031D22
:1002AE00522970087104031D5D295E2940297508C5
:1002BE00F1007408F0000800831203138E018F0101
:1002CE0007161030F000F00B6A290000831203139A
:1002DE000712871E7329742970291014871A78291A
:1002EE007929752910100F08F000F1017008F1003E
:1002FE00F0017008D2007108D30052080E04F0000D
:10030E005308F1007008D2007108D3000800780875
:10031E007904031993299429C329FD01FD0AA22901
:10032E0001300310F80DF90DFF3E031D9829013021
:10033E00FC007C08FD07F91FA529A6299729790835
:10034E007B02031DAC2978087A02031CAF29B02961
:10035E00B6297808FA027908031CFB03FB02013068
:10036E000310F90CF80CFF3E031DB7290130FD02F6
:10037E00031DC229C329A6297B08F9007A08F800B3
:10038E0008000A128A11EA220A128A110A128A1126
:10039E00DF200A128A110A128A11E7200A128A1124
:1003AE000A128A1163210A128A110A128A119A22DA
:1003BE000A128A1183120313CE00CF01CE1BCF0374
:1003CE0080300A128A1111210A128A110B308312FF
:1003DE000313C5004508A0004F08A2004E08A10057
:1003EE0046300A128A1185240A128A1146300A12E0
:1003FE008A1127210A128A11D7290A128A11002876
:10040E00F501F6017008710403190E2A0F2A462A07
:10041E00F701F70A1D2A01300310F00DF10DFF3E12
:10042E00031D132A0130F4007408F707F11F202A68
:10043E00212A122A01300310F50DF60DFF3E031D81
:10044E00222A71087302031D2E2A70087202031CE1
:10045E00312A322A392A7008F2027108031CF3037A
:10046E00F302751401300310F10CF00CFF3E031D66
:10047E003A2A0130F702031D452A462A212A760818
:10048E00F1007508F0000800F10071184F2A532A88
:10049E00831203130816562A8312031308127108C7
:1004AE00F00001300310F00CFF3E031D592A7018A6
:1004BE00612A652A831203138816682A831203138E
:1004CE0088127108F00002300310F00CFF3E031D7D
:1004DE006B2A7018732A772A8312031308177A2A45
:1004EE008312031308137108F00003300310F00C8D
:1004FE00FF3E031D7D2A7018852A892A8312031355
:10050E0088178C2A83120313881308150830F000FD
:10051E00F00B8F2A8312031308114230F000F00BF8
:10052E00962A00000800003083120313530276301F
:10053E0003195202031CA42AA52AE82A5B3053028F
:10054E00E930031952020318AD2AAE2AE82A5208DE
:10055E00F0005308F100F201F30100300A128A1183
:10056E00CB230A128A11730883120313A700720891
:10057E00A6007108A5007008A4004230A3006B30DD
:10058E00A2004730A100AE30A0000A128A1119262F
:10059E000A128A11831203132308BD002208BC001D
:1005AE002108BB002008BA000A128A114F230A1232
:1005BE008A11831203133B08D1003A08D000500869
:1005CE00E92A0030080083160313880183120313EF
:1005DE00081088108230F500DD30F400F40BF52A97
:1005EE00F50BF52AFA2A03300A128A114B220A1247
:1005FE008A114130F500EE30F400F40B042BF50BAC
:10060E00042B000003300A128A114B220A128A119F
:10061E004130F500EE30F400F40B132BF50B132BD9
:10062E00000003300A128A114B220A128A1141303D
:10063E00F500EE30F400F40B222BF50B222B00000C
:10064E0002300A128A114B220A128A114130F50029
:10065E00EE30F400F40B312BF50B312B000028306B
:10066E000A128A1111210A128A110C300A128A11E9
:10067E0011210A128A1106300A128A1111210A1248
:10068E008A1101300A128A1111210A128A110800E8
:10069E000310831203133C0D3D0DBE003E08C40033
:1006AE004408031D5B2B5C2B652B0030BD00003016
:1006BE00BC000030BB000030BA00CA2B3A08BE00A6
:1006CE003B08BF003C08C0003D08C1001F300310AE
:1006DE00C10CC00CBF0CBE0CFF3E031D6E2B3E08A2
:1006EE00C2004208C300BC17FF30BA05FF30BB057D
:1006FE00FF30BC050030BD059630C402C41F882BE8
:10070E00892BA32B4408803A973E03188F2B902BEE
:10071E00912B5C2B01300310BD0CBC0CBB0CBA0C26
:10072E00FF3E031D922B0130BE003E08C407031D81
:10073E00A12BA22B912BBA2B20304402031CA82BE9
:10074E00A92BB52B5C2B0130BE000310BA0DBB0DCF
:10075E00BC0DBD0DBE0BAC2B0130C4024408031DF5
:10076E00B92BBA2BAA2B43080319BE2BBF2BCA2BAE
:10077E00BA09BB09BC09BD09BA0A0319BB0A031998
:10078E00BC0A0319BD0A0800F80078080319D02B1B
:10079E00D12BE52BF31FD42BD52BE52B7009FA00AB
:1007AE007109FB007209FC007309FD00FA0A0319B6
:1007BE00FB0A0319FC0A0319FD0AED2B7308FD0051
:1007CE007208FC007108FB007008FA0073087204CE
:1007DE0071047004031DF42BF52BFE2B0030F30077
:1007EE000030F2000030F1000030F000842C963022
:1007FE00F4007408F900102C0130F4007408F907A5
:10080E0001300310FD0CFC0CFB0CFA0CFF3E031D1B
:10081E00082CFE307D05031D152C162C032C322CB6
:10082E000130F4007408F9070130FA07003003189C
:10083E000130FB07003003180130FC0700300318AD
:10084E000130FD0701300310FD0CFC0CFB0CFA0C03
:10085E00FF3E031D2A2CFF307D05031D372C382C3F
:10086E00172C442C0130F9020130F4000310FA0D5C
:10087E00FB0DFC0DFD0DF40B3D2CFC1B472C482CE9
:10088E004E2C0230790203184D2C4E2C392C79182F
:10089E00512C522C5A2CFF30FA05FF30FB057F30BD
:1008AE00FC05FF30FD050310F90C7908F400F50185
:1008BE00F601F70118300310F40DF50DF60DF70DD6
:1008CE00FF3E031D622C7408FA047508FB047608BB
:1008DE00FC047708FD0478080319762C772C7C2C01
:1008EE00F31F7A2C7B2C7C2CFD177D08F3007C08E3
:1008FE00F2007B08F1007A08F0000800831203135F
:10090E00AB002130A3002308A600022E25302E06B0
:10091E000319922C932C9F2C2E08A3002B088400D5
:10092E002308831380000130A3002308AB07022E97
:10093E00AC01AD01A701A82C27150130A300230897
:10094E00A007200884000A128A1103200A128A11B5
:10095E00A300A4012408003A0319B62CBB2C2308CB
:10096E00303A0319A32CBB2C200884000A128A11DA
:10097E0003200A128A110A128A11FF200A128A1102
:10098E00031CCA2CCB2C112D83120313AC01AD0109
:10099E000A30F0000030F100831203132D08F3002B
:1009AE002C08F2000A128A113E210A128A117108CD
:1009BE0083120313AD007008AC00200884000A12E5
:1009CE008A1103200A128A11D03EA300FF300318A9
:1009DE000030A4002308AC070318AD0A2408AD07A5
:1009EE000130A3002308A007200884000A128A11F0
:1009FE0003200A128A110A128A11FF200A128A1182
:100A0E0003180A2D0B2DCF2C112DC030A300230857
:100A1E00A7042D2D013083120313A007FF302007EA
:100A2E0084000A128A1103200A128A11AE00A30052
:100A3E00A4012408003A0319252D022E2308003A9A
:100A4E000319142E753A03190C2D022E2608840054
:100A5E0083130008A800840A0008A9000230A3002E
:100A6E002308A607AE01AE0A2E08A3002307013EF7
:100A7E0084000A128A1103200A128A11A4000A1293
:100A8E008A1103200A128A11A50025082902031DC6
:100A9E00522D240828020318552D562D572D612D41
:100AAE000130A3002308AE0705302E06031D602D6E
:100ABE00612D3B2D2D08803A803C031D682D2C089E
:100ACE002E0203186B2D6C2D782D831203132E0816
:100ADE00A300A4012308AC022408031CAD03AD023D
:100AEE007C2D83120313AC01AD01271D7F2D802DAC
:100AFE009E2D2C082D040319852D862DBB2D3030EF
:100B0E00A3002B0884002308831380000130A30068
:100B1E002308AB07FF30AC070318AD0AFF30AD0753
:100B2E002C082D04031D9C2D9D2D862DBB2D2C08D0
:100B3E002D040319A32DA42DBB2D2030A3002B08AB
:100B4E0084002308831380000130A3002308AB0721
:100B5E00FF30AC070318AD0AFF30AD072C082D048B
:100B6E00031DBA2DBB2DA42D2E08A3002308AA0009
:100B7E00F92D0A30F8000030F9002A08A3002307E7
:100B8E00013E84000A128A1103200A128A11F00013
:100B9E000A128A1103200A128A11F1002908F300A1
:100BAE002808F2000A128A1107220A128A11710805
:100BBE00FB007008FA000A128A118E210A128A119D
:100BCE007808303E83120313A4002408AE002E08CA
:100BDE00A3002B0884002308831380000130A30098
:100BEE002308AB07FF30A3002308AA072A0A031D18
:100BFE00012E022EC02D0130A007FF3020078400E9
:100C0E000A128A1103200A128A11A3002308AE00C9
:100C1E002E08031D132E142E8D2C2B0884008313E7
:100C2E00800108008312031327088039A8002808C2
:100C3E00B1002708A8002807A9002908B800A61F98
:100C4E00292E2A2E2B2E3814380803192F2E302E2B
:100C5E00402E380A031D342E352E3D2E0030A700AF
:100C6E000030A6000030A5000030A400A617A70192
:100C7E00482E0030A7000030A6000030A50000303E
:100C8E00A40023088039A8002808B1062308A8006C
:100C9E002807A9002908B900A21F562E572E582E34
:100CAE003914390803195C2E5D2E6D2E390A031D79
:100CBE00612E622E6A2E0030A3000030A20000309A
:100CCE00A1000030A000A217A301752E0030A300D2
:100CDE000030A2000030A1000030A0002308220442
:100CEE0021042004031D7C2E7D2E962E0030A7009D
:100CFE000030A6000030A5000030A4008030A6040D
:100D0E007F30A7043108A8002808A7042708A300ED
:100D1E002608A2002508A1002408A000F52F3808F7
:100D2E00031D9A2E9B2EA42E0030A3000030A2008D
:100D3E000030A1000030A000F52F3808A800A9014E
:100D4E002908AB0039082802AA00031CAB032A08A5
:100D5E007F3EB2002B080318013E003EB300270869
:100D6E00B0002608AF002508AE002408AD00003004
:100D7E00A7000030A6000030A5000030A40000300F
:100D8E00B7000030B6000030B5000030B400B90135
:100D9E001A2F39080319D42ED52EF52E0130A8009E
:100DAE000310AD0DAE0DAF0DB00DA80BD72E01304B
:100DBE00A8000310A40DA50DA60DA70DA80BE02EDF
:100DCE00B71FEA2EEB2EEC2E24140130A8000310D0
:100DDE00B40DB50DB60DB70DA80BEE2E23083002CF
:100DEE00031D032F22082F02031D032F21082E029D
:100DFE00031D032F20082D02031C062F072F162F6D
:100E0E0037172008AD022108031C210FAE0222085D
:100E1E00031C220FAF022308031C230FB002013064
:100E2E00A8002808B9071A303902031C1F2F202FDB
:100E3E00D02E30082F042E042D040319272F282F0F
:100E4E00472F3414472F0130A8000310A40DA50D11
:100E5E00A60DA70DA80B2C2FB71F362F372F382F07
:100E6E0024140130A8000310B40DB50DB60DB70D46
:100E7E00A80B3A2FFF30B2070318B30AFF30B3079F
:100E8E00A61F4A2F4B2F2A2FB901B71F4F2F502FB6
:100E9E006C2FFF303405A800FF303505A900FF3058
:100EAE003605AA007F303705AB002B082A0429042B
:100EBE0028040319632F642F672FB901B90A6C2F09
:100ECE00241C6A2F6B2F6C2F642F39080319702F77
:100EDE00712FA22F0130A407003003180130A5078F
:100EEE00003003180130A607003003180130A707A1
:100EFE00271C822F832FA22F2408A8002508A900C3
:100F0E002608AA002708AB000130AC002B0DAB0C55
:100F1E00AA0CA90CA80CAC0B8D2F2B08A7002A0825
:100F2E00A6002908A5002808A4000130B20703185E
:100F3E00B30A0030B3073308803AFF0080307F02D7
:100F4E00031DAB2FFF303202031CAE2FAF2FBD2F70
:100F5E00FF3083120313B2000030B3000030A7003D
:100F6E000030A6000030A5000030A4008312031349
:100F7E003308803AFF0080307F02031DC82F0130F6
:100F8E0032020318CB2FCC2FD92F83120313B201A9
:100F9E00B3010030A7000030A6000030A5000030DD
:100FAE00A400B101831203133208A8002808B80068
:100FBE00381CE22FE32FE52FA617E92F7F30A8006C
:100FCE002808A6053808A8000310280CA90029082F
:100FDE00A7003108A8002808A7048D2E0800831248
:100FEE000313D001D101D201D30183010A128A1158
:020FFE00C82900
:02400E003A3F37
:00000001FF
